{"abi":[{"type":"constructor","inputs":[{"name":"name_","type":"string","internalType":"string"},{"name":"symbol_","type":"string","internalType":"string"},{"name":"decimals_","type":"uint8","internalType":"uint8"}],"stateMutability":"nonpayable"},{"type":"function","name":"DOMAIN_SEPARATOR","inputs":[],"outputs":[{"name":"domainSeparator_","type":"bytes32","internalType":"bytes32"}],"stateMutability":"view"},{"type":"function","name":"PERMIT_TYPEHASH","inputs":[],"outputs":[{"name":"","type":"bytes32","internalType":"bytes32"}],"stateMutability":"view"},{"type":"function","name":"allowance","inputs":[{"name":"","type":"address","internalType":"address"},{"name":"","type":"address","internalType":"address"}],"outputs":[{"name":"","type":"uint256","internalType":"uint256"}],"stateMutability":"view"},{"type":"function","name":"approve","inputs":[{"name":"spender_","type":"address","internalType":"address"},{"name":"amount_","type":"uint256","internalType":"uint256"}],"outputs":[{"name":"success_","type":"bool","internalType":"bool"}],"stateMutability":"nonpayable"},{"type":"function","name":"balanceOf","inputs":[{"name":"","type":"address","internalType":"address"}],"outputs":[{"name":"","type":"uint256","internalType":"uint256"}],"stateMutability":"view"},{"type":"function","name":"burn","inputs":[{"name":"owner_","type":"address","internalType":"address"},{"name":"amount_","type":"uint256","internalType":"uint256"}],"outputs":[],"stateMutability":"nonpayable"},{"type":"function","name":"decimals","inputs":[],"outputs":[{"name":"","type":"uint8","internalType":"uint8"}],"stateMutability":"view"},{"type":"function","name":"decreaseAllowance","inputs":[{"name":"spender_","type":"address","internalType":"address"},{"name":"subtractedAmount_","type":"uint256","internalType":"uint256"}],"outputs":[{"name":"success_","type":"bool","internalType":"bool"}],"stateMutability":"nonpayable"},{"type":"function","name":"increaseAllowance","inputs":[{"name":"spender_","type":"address","internalType":"address"},{"name":"addedAmount_","type":"uint256","internalType":"uint256"}],"outputs":[{"name":"success_","type":"bool","internalType":"bool"}],"stateMutability":"nonpayable"},{"type":"function","name":"mint","inputs":[{"name":"recipient_","type":"address","internalType":"address"},{"name":"amount_","type":"uint256","internalType":"uint256"}],"outputs":[],"stateMutability":"nonpayable"},{"type":"function","name":"name","inputs":[],"outputs":[{"name":"","type":"string","internalType":"string"}],"stateMutability":"view"},{"type":"function","name":"nonces","inputs":[{"name":"","type":"address","internalType":"address"}],"outputs":[{"name":"","type":"uint256","internalType":"uint256"}],"stateMutability":"view"},{"type":"function","name":"permit","inputs":[{"name":"owner_","type":"address","internalType":"address"},{"name":"spender_","type":"address","internalType":"address"},{"name":"amount_","type":"uint256","internalType":"uint256"},{"name":"deadline_","type":"uint256","internalType":"uint256"},{"name":"v_","type":"uint8","internalType":"uint8"},{"name":"r_","type":"bytes32","internalType":"bytes32"},{"name":"s_","type":"bytes32","internalType":"bytes32"}],"outputs":[],"stateMutability":"nonpayable"},{"type":"function","name":"symbol","inputs":[],"outputs":[{"name":"","type":"string","internalType":"string"}],"stateMutability":"view"},{"type":"function","name":"totalSupply","inputs":[],"outputs":[{"name":"","type":"uint256","internalType":"uint256"}],"stateMutability":"view"},{"type":"function","name":"transfer","inputs":[{"name":"recipient_","type":"address","internalType":"address"},{"name":"amount_","type":"uint256","internalType":"uint256"}],"outputs":[{"name":"success_","type":"bool","internalType":"bool"}],"stateMutability":"nonpayable"},{"type":"function","name":"transferFrom","inputs":[{"name":"owner_","type":"address","internalType":"address"},{"name":"recipient_","type":"address","internalType":"address"},{"name":"amount_","type":"uint256","internalType":"uint256"}],"outputs":[{"name":"success_","type":"bool","internalType":"bool"}],"stateMutability":"nonpayable"},{"type":"event","name":"Approval","inputs":[{"name":"owner_","type":"address","indexed":true,"internalType":"address"},{"name":"spender_","type":"address","indexed":true,"internalType":"address"},{"name":"amount_","type":"uint256","indexed":false,"internalType":"uint256"}],"anonymous":false},{"type":"event","name":"Transfer","inputs":[{"name":"owner_","type":"address","indexed":true,"internalType":"address"},{"name":"recipient_","type":"address","indexed":true,"internalType":"address"},{"name":"amount_","type":"uint256","indexed":false,"internalType":"uint256"}],"anonymous":false}],"bytecode":{"object":"0x60a06040523480156200001157600080fd5b5060405162000f2938038062000f298339810160408190526200003491620001f7565b82828282600090805190602001906200004f9291906200009a565b508151620000659060019060208501906200009a565b5060f81b7fff000000000000000000000000000000000000000000000000000000000000001660805250620002cf9350505050565b828054620000a8906200027c565b90600052602060002090601f016020900481019282620000cc576000855562000117565b82601f10620000e757805160ff191683800117855562000117565b8280016001018555821562000117579182015b8281111562000117578251825591602001919060010190620000fa565b506200012592915062000129565b5090565b5b808211156200012557600081556001016200012a565b600082601f8301126200015257600080fd5b81516001600160401b03808211156200016f576200016f620002b9565b604051601f8301601f19908116603f011681019082821181831017156200019a576200019a620002b9565b81604052838152602092508683858801011115620001b757600080fd5b600091505b83821015620001db5785820183015181830184015290820190620001bc565b83821115620001ed5760008385830101525b9695505050505050565b6000806000606084860312156200020d57600080fd5b83516001600160401b03808211156200022557600080fd5b620002338783880162000140565b945060208601519150808211156200024a57600080fd5b50620002598682870162000140565b925050604084015160ff811681146200027157600080fd5b809150509250925092565b600181811c908216806200029157607f821691505b60208210811415620002b357634e487b7160e01b600052602260045260246000fd5b50919050565b634e487b7160e01b600052604160045260246000fd5b60805160f81c610c3b620002ee60003960006101a70152610c3b6000f3fe608060405234801561001057600080fd5b506004361061010b5760003560e01c806340c10f19116100a25780639dc29fac116100715780639dc29fac14610253578063a457c2d714610266578063a9059cbb14610279578063d505accf1461028c578063dd62ed3e1461029f57600080fd5b806340c10f19146101f657806370a082311461020b5780637ecebe001461022b57806395d89b411461024b57600080fd5b806330adf81f116100de57806330adf81f1461017b578063313ce567146101a25780633644e515146101db57806339509351146101e357600080fd5b806306fdde0314610110578063095ea7b31461012e57806318160ddd1461015157806323b872dd14610168575b600080fd5b6101186102ca565b6040516101259190610b30565b60405180910390f35b61014161013c366004610a6a565b610358565b6040519015158152602001610125565b61015a60025481565b604051908152602001610125565b6101416101763660046109bb565b61036e565b61015a7f6e71edae12b1b97f4d1f60370fef10105fa2faae0126114a169c64845d6126c981565b6101c97f000000000000000000000000000000000000000000000000000000000000000081565b60405160ff9091168152602001610125565b61015a610390565b6101416101f1366004610a6a565b61043f565b610209610204366004610a6a565b61047b565b005b61015a610219366004610966565b60036020526000908152604090205481565b61015a610239366004610966565b60056020526000908152604090205481565b610118610489565b610209610261366004610a6a565b610496565b610141610274366004610a6a565b6104a0565b610141610287366004610a6a565b6104ad565b61020961029a3660046109f7565b6104ba565b61015a6102ad366004610988565b600460209081526000928352604080842090915290825290205481565b600080546102d790610bb4565b80601f016020809104026020016040519081016040528092919081815260200182805461030390610bb4565b80156103505780601f1061032557610100808354040283529160200191610350565b820191906000526020600020905b81548152906001019060200180831161033357829003601f168201915b505050505081565b6000610365338484610741565b50600192915050565b600061037b8433846107a3565b6103868484846107e7565b5060019392505050565b60007f8b73c3c69bb8fe3d512ecc4cf759cc79239f7b179b0ffacaa9a75d522b39400f60006040516103c29190610a94565b60408051918290038220828201825260018352603160f81b6020938401528151928301939093528101919091527fc89efdaa54c0f20c7adf612882df0950f5a951637e0307cdcb4c672f298b8bc660608201524660808201523060a082015260c00160405160208183030381529060405280519060200120905090565b3360008181526004602090815260408083206001600160a01b03871684529091528120549091610365918590610476908690610b85565b610741565b610485828261086a565b5050565b600180546102d790610bb4565b61048582826108d6565b60006103653384846107a3565b60006103653384846107e7565b428410156105015760405162461bcd60e51b815260206004820152600f60248201526e115490cc8c0e940e91561412549151608a1b60448201526064015b60405180910390fd5b7f7fffffffffffffffffffffffffffffff5d576e7357a4501ddfe92f46681b20a0811180159061054157508260ff16601b148061054157508260ff16601c145b6105815760405162461bcd60e51b815260206004820152601160248201527045524332303a503a4d414c4c4541424c4560781b60448201526064016104f8565b600061058b610390565b6001600160a01b0389811660008181526005602090815260409182902080546001810190915582517f6e71edae12b1b97f4d1f60370fef10105fa2faae0126114a169c64845d6126c98184015280840194909452938c166060840152608083018b905260a083019390935260c08083018a90528151808403909101815260e083019091528051920191909120675c7831395c78303160c01b6101008301526101088201929092526101288101919091526101480160408051601f198184030181528282528051602091820120600080855291840180845281905260ff88169284019290925260608301869052608083018590529092509060019060a0016020604051602081039080840390855afa1580156106aa573d6000803e3d6000fd5b505050602060405103519050886001600160a01b0316816001600160a01b03161480156106df57506001600160a01b03891615155b61072b5760405162461bcd60e51b815260206004820152601960248201527f45524332303a503a494e56414c49445f5349474e41545552450000000000000060448201526064016104f8565b5050610738878787610741565b50505050505050565b6001600160a01b0383811660008181526004602090815260408083209487168084529482529182902085905590518481527f8c5be1e5ebec7d5bd14f71427d1e84f3dd0314c0f7b2291e5b200ac8c7c3b92591015b60405180910390a3505050565b6001600160a01b0380841660009081526004602090815260408083209386168352929052205460001981146107e1576107e184846104768585610b9d565b50505050565b6001600160a01b0383166000908152600360205260408120805483929061080f908490610b9d565b90915550506001600160a01b03808316600081815260036020526040908190208054850190555190918516907fddf252ad1be2c89b69c2b068fc378daa952ba7f163c4a11628f55a4df523b3ef906107969085815260200190565b806002600082825461087c9190610b85565b90915550506001600160a01b0382166000818152600360209081526040808320805486019055518481527fddf252ad1be2c89b69c2b068fc378daa952ba7f163c4a11628f55a4df523b3ef91015b60405180910390a35050565b6001600160a01b038216600090815260036020526040812080548392906108fe908490610b9d565b90915550506002805482900390556040518181526000906001600160a01b038416907fddf252ad1be2c89b69c2b068fc378daa952ba7f163c4a11628f55a4df523b3ef906020016108ca565b80356001600160a01b038116811461096157600080fd5b919050565b60006020828403121561097857600080fd5b6109818261094a565b9392505050565b6000806040838503121561099b57600080fd5b6109a48361094a565b91506109b26020840161094a565b90509250929050565b6000806000606084860312156109d057600080fd5b6109d98461094a565b92506109e76020850161094a565b9150604084013590509250925092565b600080600080600080600060e0888a031215610a1257600080fd5b610a1b8861094a565b9650610a296020890161094a565b95506040880135945060608801359350608088013560ff81168114610a4d57600080fd5b9699959850939692959460a0840135945060c09093013592915050565b60008060408385031215610a7d57600080fd5b610a868361094a565b946020939093013593505050565b600080835481600182811c915080831680610ab057607f831692505b6020808410821415610ad057634e487b7160e01b86526022600452602486fd5b818015610ae45760018114610af557610b22565b60ff19861689528489019650610b22565b60008a81526020902060005b86811015610b1a5781548b820152908501908301610b01565b505084890196505b509498975050505050505050565b600060208083528351808285015260005b81811015610b5d57858101830151858201604001528201610b41565b81811115610b6f576000604083870101525b50601f01601f1916929092016040019392505050565b60008219821115610b9857610b98610bef565b500190565b600082821015610baf57610baf610bef565b500390565b600181811c90821680610bc857607f821691505b60208210811415610be957634e487b7160e01b600052602260045260246000fd5b50919050565b634e487b7160e01b600052601160045260246000fdfea26469706673582212205c5d8e23eb0f2f08d56889ddf7feba3ea0bdb94949336a00f44ac0b1ed314c6964736f6c63430008070033","linkReferences":{}},"methodIdentifiers":{"DOMAIN_SEPARATOR()":"3644e515","PERMIT_TYPEHASH()":"30adf81f","allowance(address,address)":"dd62ed3e","approve(address,uint256)":"095ea7b3","balanceOf(address)":"70a08231","burn(address,uint256)":"9dc29fac","decimals()":"313ce567","decreaseAllowance(address,uint256)":"a457c2d7","increaseAllowance(address,uint256)":"39509351","mint(address,uint256)":"40c10f19","name()":"06fdde03","nonces(address)":"7ecebe00","permit(address,address,uint256,uint256,uint8,bytes32,bytes32)":"d505accf","symbol()":"95d89b41","totalSupply()":"18160ddd","transfer(address,uint256)":"a9059cbb","transferFrom(address,address,uint256)":"23b872dd"},"id":26}