{"abi":[{"type":"constructor","inputs":[{"name":"name_","type":"string","internalType":"string"},{"name":"symbol_","type":"string","internalType":"string"},{"name":"decimals_","type":"uint8","internalType":"uint8"}],"stateMutability":"nonpayable"},{"type":"function","name":"DOMAIN_SEPARATOR","inputs":[],"outputs":[{"name":"domainSeparator_","type":"bytes32","internalType":"bytes32"}],"stateMutability":"view"},{"type":"function","name":"PERMIT_TYPEHASH","inputs":[],"outputs":[{"name":"","type":"bytes32","internalType":"bytes32"}],"stateMutability":"view"},{"type":"function","name":"allowance","inputs":[{"name":"","type":"address","internalType":"address"},{"name":"","type":"address","internalType":"address"}],"outputs":[{"name":"","type":"uint256","internalType":"uint256"}],"stateMutability":"view"},{"type":"function","name":"approve","inputs":[{"name":"spender_","type":"address","internalType":"address"},{"name":"amount_","type":"uint256","internalType":"uint256"}],"outputs":[{"name":"success_","type":"bool","internalType":"bool"}],"stateMutability":"nonpayable"},{"type":"function","name":"balanceOf","inputs":[{"name":"","type":"address","internalType":"address"}],"outputs":[{"name":"","type":"uint256","internalType":"uint256"}],"stateMutability":"view"},{"type":"function","name":"decimals","inputs":[],"outputs":[{"name":"","type":"uint8","internalType":"uint8"}],"stateMutability":"view"},{"type":"function","name":"decreaseAllowance","inputs":[{"name":"spender_","type":"address","internalType":"address"},{"name":"subtractedAmount_","type":"uint256","internalType":"uint256"}],"outputs":[{"name":"success_","type":"bool","internalType":"bool"}],"stateMutability":"nonpayable"},{"type":"function","name":"increaseAllowance","inputs":[{"name":"spender_","type":"address","internalType":"address"},{"name":"addedAmount_","type":"uint256","internalType":"uint256"}],"outputs":[{"name":"success_","type":"bool","internalType":"bool"}],"stateMutability":"nonpayable"},{"type":"function","name":"name","inputs":[],"outputs":[{"name":"","type":"string","internalType":"string"}],"stateMutability":"view"},{"type":"function","name":"nonces","inputs":[{"name":"","type":"address","internalType":"address"}],"outputs":[{"name":"","type":"uint256","internalType":"uint256"}],"stateMutability":"view"},{"type":"function","name":"permit","inputs":[{"name":"owner_","type":"address","internalType":"address"},{"name":"spender_","type":"address","internalType":"address"},{"name":"amount_","type":"uint256","internalType":"uint256"},{"name":"deadline_","type":"uint256","internalType":"uint256"},{"name":"v_","type":"uint8","internalType":"uint8"},{"name":"r_","type":"bytes32","internalType":"bytes32"},{"name":"s_","type":"bytes32","internalType":"bytes32"}],"outputs":[],"stateMutability":"nonpayable"},{"type":"function","name":"symbol","inputs":[],"outputs":[{"name":"","type":"string","internalType":"string"}],"stateMutability":"view"},{"type":"function","name":"totalSupply","inputs":[],"outputs":[{"name":"","type":"uint256","internalType":"uint256"}],"stateMutability":"view"},{"type":"function","name":"transfer","inputs":[{"name":"recipient_","type":"address","internalType":"address"},{"name":"amount_","type":"uint256","internalType":"uint256"}],"outputs":[{"name":"success_","type":"bool","internalType":"bool"}],"stateMutability":"nonpayable"},{"type":"function","name":"transferFrom","inputs":[{"name":"owner_","type":"address","internalType":"address"},{"name":"recipient_","type":"address","internalType":"address"},{"name":"amount_","type":"uint256","internalType":"uint256"}],"outputs":[{"name":"success_","type":"bool","internalType":"bool"}],"stateMutability":"nonpayable"},{"type":"event","name":"Approval","inputs":[{"name":"owner_","type":"address","indexed":true,"internalType":"address"},{"name":"spender_","type":"address","indexed":true,"internalType":"address"},{"name":"amount_","type":"uint256","indexed":false,"internalType":"uint256"}],"anonymous":false},{"type":"event","name":"Transfer","inputs":[{"name":"owner_","type":"address","indexed":true,"internalType":"address"},{"name":"recipient_","type":"address","indexed":true,"internalType":"address"},{"name":"amount_","type":"uint256","indexed":false,"internalType":"uint256"}],"anonymous":false}],"bytecode":{"object":"0x60a06040523480156200001157600080fd5b5060405162000e2438038062000e24833981016040819052620000349162000129565b60006200004284826200023f565b5060016200005183826200023f565b5060ff16608052506200030b9050565b634e487b7160e01b600052604160045260246000fd5b600082601f8301126200008957600080fd5b81516001600160401b0380821115620000a657620000a662000061565b604051601f8301601f19908116603f01168101908282118183101715620000d157620000d162000061565b8160405283815260209250866020858801011115620000ef57600080fd5b600091505b83821015620001135785820183015181830184015290820190620000f4565b6000602085830101528094505050505092915050565b6000806000606084860312156200013f57600080fd5b83516001600160401b03808211156200015757600080fd5b620001658783880162000077565b945060208601519150808211156200017c57600080fd5b506200018b8682870162000077565b925050604084015160ff81168114620001a357600080fd5b809150509250925092565b600181811c90821680620001c357607f821691505b602082108103620001e457634e487b7160e01b600052602260045260246000fd5b50919050565b601f8211156200023a576000816000526020600020601f850160051c81016020861015620002155750805b601f850160051c820191505b81811015620002365782815560010162000221565b5050505b505050565b81516001600160401b038111156200025b576200025b62000061565b62000273816200026c8454620001ae565b84620001ea565b602080601f831160018114620002ab5760008415620002925750858301515b600019600386901b1c1916600185901b17855562000236565b600085815260208120601f198616915b82811015620002dc57888601518255948401946001909101908401620002bb565b5085821015620002fb5787850151600019600388901b60f8161c191681555b5050505050600190811b01905550565b608051610afd6200032760003960006101910152610afd6000f3fe608060405234801561001057600080fd5b50600436106100f55760003560e01c80633950935111610097578063a457c2d711610066578063a457c2d714610228578063a9059cbb1461023b578063d505accf1461024e578063dd62ed3e1461026357600080fd5b806339509351146101cd57806370a08231146101e05780637ecebe001461020057806395d89b411461022057600080fd5b806323b872dd116100d357806323b872dd1461015257806330adf81f14610165578063313ce5671461018c5780633644e515146101c557600080fd5b806306fdde03146100fa578063095ea7b31461011857806318160ddd1461013b575b600080fd5b61010261028e565b60405161010f9190610817565b60405180910390f35b61012b610126366004610882565b61031c565b604051901515815260200161010f565b61014460025481565b60405190815260200161010f565b61012b6101603660046108ac565b610333565b6101447f6e71edae12b1b97f4d1f60370fef10105fa2faae0126114a169c64845d6126c981565b6101b37f000000000000000000000000000000000000000000000000000000000000000081565b60405160ff909116815260200161010f565b610144610355565b61012b6101db366004610882565b610404565b6101446101ee3660046108e8565b60036020526000908152604090205481565b61014461020e3660046108e8565b60056020526000908152604090205481565b610102610440565b61012b610236366004610882565b61044d565b61012b610249366004610882565b61045a565b61026161025c36600461090a565b610467565b005b61014461027136600461097d565b600460209081526000928352604080842090915290825290205481565b6000805461029b906109b0565b80601f01602080910402602001604051908101604052809291908181526020018280546102c7906109b0565b80156103145780601f106102e957610100808354040283529160200191610314565b820191906000526020600020905b8154815290600101906020018083116102f757829003601f168201915b505050505081565b60006103293384846106ee565b5060015b92915050565b6000610340843384610750565b61034b848484610794565b5060019392505050565b60007f8b73c3c69bb8fe3d512ecc4cf759cc79239f7b179b0ffacaa9a75d522b39400f600060405161038791906109ea565b60408051918290038220828201825260018352603160f81b6020938401528151928301939093528101919091527fc89efdaa54c0f20c7adf612882df0950f5a951637e0307cdcb4c672f298b8bc660608201524660808201523060a082015260c00160405160208183030381529060405280519060200120905090565b3360008181526004602090815260408083206001600160a01b0387168452909152812054909161032991859061043b908690610aa1565b6106ee565b6001805461029b906109b0565b6000610329338484610750565b6000610329338484610794565b428410156104ae5760405162461bcd60e51b815260206004820152600f60248201526e115490cc8c0e940e91561412549151608a1b60448201526064015b60405180910390fd5b7f7fffffffffffffffffffffffffffffff5d576e7357a4501ddfe92f46681b20a081118015906104ee57508260ff16601b14806104ee57508260ff16601c145b61052e5760405162461bcd60e51b815260206004820152601160248201527045524332303a503a4d414c4c4541424c4560781b60448201526064016104a5565b6000610538610355565b6001600160a01b0389811660008181526005602090815260409182902080546001810190915582517f6e71edae12b1b97f4d1f60370fef10105fa2faae0126114a169c64845d6126c98184015280840194909452938c166060840152608083018b905260a083019390935260c08083018a90528151808403909101815260e083019091528051920191909120675c7831395c78303160c01b6101008301526101088201929092526101288101919091526101480160408051601f198184030181528282528051602091820120600080855291840180845281905260ff88169284019290925260608301869052608083018590529092509060019060a0016020604051602081039080840390855afa158015610657573d6000803e3d6000fd5b505050602060405103519050886001600160a01b0316816001600160a01b031614801561068c57506001600160a01b03891615155b6106d85760405162461bcd60e51b815260206004820152601960248201527f45524332303a503a494e56414c49445f5349474e41545552450000000000000060448201526064016104a5565b50506106e58787876106ee565b50505050505050565b6001600160a01b0383811660008181526004602090815260408083209487168084529482529182902085905590518481527f8c5be1e5ebec7d5bd14f71427d1e84f3dd0314c0f7b2291e5b200ac8c7c3b92591015b60405180910390a3505050565b6001600160a01b03808416600090815260046020908152604080832093861683529290522054600019811461078e5761078e848461043b8585610ab4565b50505050565b6001600160a01b038316600090815260036020526040812080548392906107bc908490610ab4565b90915550506001600160a01b03808316600081815260036020526040908190208054850190555190918516907fddf252ad1be2c89b69c2b068fc378daa952ba7f163c4a11628f55a4df523b3ef906107439085815260200190565b60006020808352835180602085015260005b8181101561084557858101830151858201604001528201610829565b506000604082860101526040601f19601f8301168501019250505092915050565b80356001600160a01b038116811461087d57600080fd5b919050565b6000806040838503121561089557600080fd5b61089e83610866565b946020939093013593505050565b6000806000606084860312156108c157600080fd5b6108ca84610866565b92506108d860208501610866565b9150604084013590509250925092565b6000602082840312156108fa57600080fd5b61090382610866565b9392505050565b600080600080600080600060e0888a03121561092557600080fd5b61092e88610866565b965061093c60208901610866565b95506040880135945060608801359350608088013560ff8116811461096057600080fd5b9699959850939692959460a0840135945060c09093013592915050565b6000806040838503121561099057600080fd5b61099983610866565b91506109a760208401610866565b90509250929050565b600181811c908216806109c457607f821691505b6020821081036109e457634e487b7160e01b600052602260045260246000fd5b50919050565b60008083548160018260011c91506001831680610a0857607f831692505b60208084108203610a2757634e487b7160e01b86526022600452602486fd5b818015610a3b5760018114610a5057610a7d565b60ff1986168952841515850289019650610a7d565b60008a81526020902060005b86811015610a755781548b820152908501908301610a5c565b505084890196505b509498975050505050505050565b634e487b7160e01b600052601160045260246000fd5b8082018082111561032d5761032d610a8b565b8181038181111561032d5761032d610a8b56fea264697066735822122094271d80d8b3d0ab4501ce22e8363b6c24283b20d4260996a194a79c699adba464736f6c63430008180033","linkReferences":{}},"methodIdentifiers":{"DOMAIN_SEPARATOR()":"3644e515","PERMIT_TYPEHASH()":"30adf81f","allowance(address,address)":"dd62ed3e","approve(address,uint256)":"095ea7b3","balanceOf(address)":"70a08231","decimals()":"313ce567","decreaseAllowance(address,uint256)":"a457c2d7","increaseAllowance(address,uint256)":"39509351","name()":"06fdde03","nonces(address)":"7ecebe00","permit(address,address,uint256,uint256,uint8,bytes32,bytes32)":"d505accf","symbol()":"95d89b41","totalSupply()":"18160ddd","transfer(address,uint256)":"a9059cbb","transferFrom(address,address,uint256)":"23b872dd"},"id":25}